{
  "_format": "hh-sol-artifact-1",
  "contractName": "PushLend",
  "sourceName": "contracts/PushLend.sol",
  "abi": [
    {
      "inputs": [],
      "stateMutability": "nonpayable",
      "type": "constructor"
    },
    {
      "inputs": [],
      "name": "AlreadyExists",
      "type": "error"
    },
    {
      "inputs": [],
      "name": "InsufficientCollateral",
      "type": "error"
    },
    {
      "inputs": [],
      "name": "InvalidAmount",
      "type": "error"
    },
    {
      "inputs": [],
      "name": "LoanNotActive",
      "type": "error"
    },
    {
      "inputs": [],
      "name": "LoanNotLiquidatable",
      "type": "error"
    },
    {
      "inputs": [],
      "name": "NotFound",
      "type": "error"
    },
    {
      "inputs": [],
      "name": "OfferNotActive",
      "type": "error"
    },
    {
      "inputs": [],
      "name": "TransferFailed",
      "type": "error"
    },
    {
      "inputs": [],
      "name": "Unauthorized",
      "type": "error"
    },
    {
      "anonymous": false,
      "inputs": [
        {
          "indexed": true,
          "internalType": "address",
          "name": "user",
          "type": "address"
        },
        {
          "indexed": false,
          "internalType": "uint256",
          "name": "newScore",
          "type": "uint256"
        }
      ],
      "name": "CreditScoreUpdated",
      "type": "event"
    },
    {
      "anonymous": false,
      "inputs": [
        {
          "indexed": true,
          "internalType": "uint256",
          "name": "loanId",
          "type": "uint256"
        },
        {
          "indexed": true,
          "internalType": "address",
          "name": "borrower",
          "type": "address"
        },
        {
          "indexed": true,
          "internalType": "address",
          "name": "lender",
          "type": "address"
        },
        {
          "indexed": false,
          "internalType": "uint256",
          "name": "amount",
          "type": "uint256"
        }
      ],
      "name": "LoanCreated",
      "type": "event"
    },
    {
      "anonymous": false,
      "inputs": [
        {
          "indexed": true,
          "internalType": "uint256",
          "name": "loanId",
          "type": "uint256"
        },
        {
          "indexed": true,
          "internalType": "address",
          "name": "lender",
          "type": "address"
        }
      ],
      "name": "LoanFunded",
      "type": "event"
    },
    {
      "anonymous": false,
      "inputs": [
        {
          "indexed": true,
          "internalType": "uint256",
          "name": "loanId",
          "type": "uint256"
        }
      ],
      "name": "LoanLiquidated",
      "type": "event"
    },
    {
      "anonymous": false,
      "inputs": [
        {
          "indexed": true,
          "internalType": "uint256",
          "name": "offerId",
          "type": "uint256"
        }
      ],
      "name": "LoanOfferCancelled",
      "type": "event"
    },
    {
      "anonymous": false,
      "inputs": [
        {
          "indexed": true,
          "internalType": "uint256",
          "name": "offerId",
          "type": "uint256"
        },
        {
          "indexed": true,
          "internalType": "address",
          "name": "lender",
          "type": "address"
        },
        {
          "indexed": false,
          "internalType": "uint256",
          "name": "amount",
          "type": "uint256"
        }
      ],
      "name": "LoanOfferCreated",
      "type": "event"
    },
    {
      "anonymous": false,
      "inputs": [
        {
          "indexed": true,
          "internalType": "uint256",
          "name": "loanId",
          "type": "uint256"
        },
        {
          "indexed": false,
          "internalType": "uint256",
          "name": "repaidAmount",
          "type": "uint256"
        }
      ],
      "name": "LoanRepaid",
      "type": "event"
    },
    {
      "inputs": [
        {
          "internalType": "uint256",
          "name": "offerId",
          "type": "uint256"
        },
        {
          "internalType": "uint256",
          "name": "duration",
          "type": "uint256"
        }
      ],
      "name": "acceptOffer",
      "outputs": [
        {
          "internalType": "uint256",
          "name": "",
          "type": "uint256"
        }
      ],
      "stateMutability": "payable",
      "type": "function"
    },
    {
      "inputs": [
        {
          "internalType": "uint256",
          "name": "principalAmount",
          "type": "uint256"
        },
        {
          "internalType": "uint256",
          "name": "interestRate",
          "type": "uint256"
        },
        {
          "internalType": "uint256",
          "name": "duration",
          "type": "uint256"
        }
      ],
      "name": "calculateInterest",
      "outputs": [
        {
          "internalType": "uint256",
          "name": "",
          "type": "uint256"
        }
      ],
      "stateMutability": "pure",
      "type": "function"
    },
    {
      "inputs": [
        {
          "internalType": "uint256",
          "name": "loanId",
          "type": "uint256"
        }
      ],
      "name": "calculateTotalRepayment",
      "outputs": [
        {
          "internalType": "uint256",
          "name": "",
          "type": "uint256"
        }
      ],
      "stateMutability": "view",
      "type": "function"
    },
    {
      "inputs": [
        {
          "internalType": "uint256",
          "name": "offerId",
          "type": "uint256"
        }
      ],
      "name": "cancelOffer",
      "outputs": [],
      "stateMutability": "nonpayable",
      "type": "function"
    },
    {
      "inputs": [
        {
          "internalType": "uint256",
          "name": "amount",
          "type": "uint256"
        },
        {
          "internalType": "uint256",
          "name": "interestRate",
          "type": "uint256"
        },
        {
          "internalType": "uint256",
          "name": "duration",
          "type": "uint256"
        }
      ],
      "name": "createLoanRequest",
      "outputs": [
        {
          "internalType": "uint256",
          "name": "",
          "type": "uint256"
        }
      ],
      "stateMutability": "payable",
      "type": "function"
    },
    {
      "inputs": [
        {
          "internalType": "uint256",
          "name": "amount",
          "type": "uint256"
        },
        {
          "internalType": "uint256",
          "name": "interestRate",
          "type": "uint256"
        },
        {
          "internalType": "uint256",
          "name": "maxDuration",
          "type": "uint256"
        },
        {
          "internalType": "uint256",
          "name": "minCollateralRatio_",
          "type": "uint256"
        }
      ],
      "name": "createOffer",
      "outputs": [
        {
          "internalType": "uint256",
          "name": "",
          "type": "uint256"
        }
      ],
      "stateMutability": "nonpayable",
      "type": "function"
    },
    {
      "inputs": [
        {
          "internalType": "address",
          "name": "",
          "type": "address"
        }
      ],
      "name": "creditScores",
      "outputs": [
        {
          "internalType": "uint256",
          "name": "totalBorrowed",
          "type": "uint256"
        },
        {
          "internalType": "uint256",
          "name": "totalRepaid",
          "type": "uint256"
        },
        {
          "internalType": "uint256",
          "name": "loansCompleted",
          "type": "uint256"
        },
        {
          "internalType": "uint256",
          "name": "loansDefaulted",
          "type": "uint256"
        },
        {
          "internalType": "uint256",
          "name": "score",
          "type": "uint256"
        }
      ],
      "stateMutability": "view",
      "type": "function"
    },
    {
      "inputs": [
        {
          "internalType": "uint256",
          "name": "loanId",
          "type": "uint256"
        }
      ],
      "name": "fundLoan",
      "outputs": [],
      "stateMutability": "payable",
      "type": "function"
    },
    {
      "inputs": [
        {
          "internalType": "address",
          "name": "user",
          "type": "address"
        }
      ],
      "name": "getCreditScore",
      "outputs": [
        {
          "components": [
            {
              "internalType": "uint256",
              "name": "totalBorrowed",
              "type": "uint256"
            },
            {
              "internalType": "uint256",
              "name": "totalRepaid",
              "type": "uint256"
            },
            {
              "internalType": "uint256",
              "name": "loansCompleted",
              "type": "uint256"
            },
            {
              "internalType": "uint256",
              "name": "loansDefaulted",
              "type": "uint256"
            },
            {
              "internalType": "uint256",
              "name": "score",
              "type": "uint256"
            }
          ],
          "internalType": "struct PushLend.CreditScore",
          "name": "",
          "type": "tuple"
        }
      ],
      "stateMutability": "view",
      "type": "function"
    },
    {
      "inputs": [
        {
          "internalType": "uint256",
          "name": "loanId",
          "type": "uint256"
        }
      ],
      "name": "getLoan",
      "outputs": [
        {
          "components": [
            {
              "internalType": "address",
              "name": "borrower",
              "type": "address"
            },
            {
              "internalType": "address",
              "name": "lender",
              "type": "address"
            },
            {
              "internalType": "uint256",
              "name": "principalAmount",
              "type": "uint256"
            },
            {
              "internalType": "uint256",
              "name": "collateralAmount",
              "type": "uint256"
            },
            {
              "internalType": "uint256",
              "name": "interestRate",
              "type": "uint256"
            },
            {
              "internalType": "uint256",
              "name": "duration",
              "type": "uint256"
            },
            {
              "internalType": "uint256",
              "name": "startTime",
              "type": "uint256"
            },
            {
              "internalType": "uint256",
              "name": "dueTime",
              "type": "uint256"
            },
            {
              "internalType": "enum PushLend.LoanStatus",
              "name": "status",
              "type": "uint8"
            },
            {
              "internalType": "uint256",
              "name": "repaidAmount",
              "type": "uint256"
            },
            {
              "internalType": "uint256",
              "name": "createdAt",
              "type": "uint256"
            }
          ],
          "internalType": "struct PushLend.Loan",
          "name": "",
          "type": "tuple"
        }
      ],
      "stateMutability": "view",
      "type": "function"
    },
    {
      "inputs": [
        {
          "internalType": "uint256",
          "name": "offerId",
          "type": "uint256"
        }
      ],
      "name": "getOffer",
      "outputs": [
        {
          "components": [
            {
              "internalType": "address",
              "name": "lender",
              "type": "address"
            },
            {
              "internalType": "uint256",
              "name": "amount",
              "type": "uint256"
            },
            {
              "internalType": "uint256",
              "name": "interestRate",
              "type": "uint256"
            },
            {
              "internalType": "uint256",
              "name": "maxDuration",
              "type": "uint256"
            },
            {
              "internalType": "uint256",
              "name": "minCollateralRatio",
              "type": "uint256"
            },
            {
              "internalType": "bool",
              "name": "active",
              "type": "bool"
            },
            {
              "internalType": "uint256",
              "name": "createdAt",
              "type": "uint256"
            }
          ],
          "internalType": "struct PushLend.LoanOffer",
          "name": "",
          "type": "tuple"
        }
      ],
      "stateMutability": "view",
      "type": "function"
    },
    {
      "inputs": [
        {
          "internalType": "uint256",
          "name": "loanId",
          "type": "uint256"
        }
      ],
      "name": "isLoanLiquidatable",
      "outputs": [
        {
          "internalType": "bool",
          "name": "",
          "type": "bool"
        }
      ],
      "stateMutability": "view",
      "type": "function"
    },
    {
      "inputs": [
        {
          "internalType": "uint256",
          "name": "loanId",
          "type": "uint256"
        }
      ],
      "name": "liquidateLoan",
      "outputs": [],
      "stateMutability": "nonpayable",
      "type": "function"
    },
    {
      "inputs": [],
      "name": "liquidationThreshold",
      "outputs": [
        {
          "internalType": "uint256",
          "name": "",
          "type": "uint256"
        }
      ],
      "stateMutability": "view",
      "type": "function"
    },
    {
      "inputs": [],
      "name": "loanCounter",
      "outputs": [
        {
          "internalType": "uint256",
          "name": "",
          "type": "uint256"
        }
      ],
      "stateMutability": "view",
      "type": "function"
    },
    {
      "inputs": [
        {
          "internalType": "uint256",
          "name": "",
          "type": "uint256"
        }
      ],
      "name": "loanOffers",
      "outputs": [
        {
          "internalType": "address",
          "name": "lender",
          "type": "address"
        },
        {
          "internalType": "uint256",
          "name": "amount",
          "type": "uint256"
        },
        {
          "internalType": "uint256",
          "name": "interestRate",
          "type": "uint256"
        },
        {
          "internalType": "uint256",
          "name": "maxDuration",
          "type": "uint256"
        },
        {
          "internalType": "uint256",
          "name": "minCollateralRatio",
          "type": "uint256"
        },
        {
          "internalType": "bool",
          "name": "active",
          "type": "bool"
        },
        {
          "internalType": "uint256",
          "name": "createdAt",
          "type": "uint256"
        }
      ],
      "stateMutability": "view",
      "type": "function"
    },
    {
      "inputs": [
        {
          "internalType": "uint256",
          "name": "",
          "type": "uint256"
        }
      ],
      "name": "loans",
      "outputs": [
        {
          "internalType": "address",
          "name": "borrower",
          "type": "address"
        },
        {
          "internalType": "address",
          "name": "lender",
          "type": "address"
        },
        {
          "internalType": "uint256",
          "name": "principalAmount",
          "type": "uint256"
        },
        {
          "internalType": "uint256",
          "name": "collateralAmount",
          "type": "uint256"
        },
        {
          "internalType": "uint256",
          "name": "interestRate",
          "type": "uint256"
        },
        {
          "internalType": "uint256",
          "name": "duration",
          "type": "uint256"
        },
        {
          "internalType": "uint256",
          "name": "startTime",
          "type": "uint256"
        },
        {
          "internalType": "uint256",
          "name": "dueTime",
          "type": "uint256"
        },
        {
          "internalType": "enum PushLend.LoanStatus",
          "name": "status",
          "type": "uint8"
        },
        {
          "internalType": "uint256",
          "name": "repaidAmount",
          "type": "uint256"
        },
        {
          "internalType": "uint256",
          "name": "createdAt",
          "type": "uint256"
        }
      ],
      "stateMutability": "view",
      "type": "function"
    },
    {
      "inputs": [],
      "name": "minCollateralRatio",
      "outputs": [
        {
          "internalType": "uint256",
          "name": "",
          "type": "uint256"
        }
      ],
      "stateMutability": "view",
      "type": "function"
    },
    {
      "inputs": [],
      "name": "offerCounter",
      "outputs": [
        {
          "internalType": "uint256",
          "name": "",
          "type": "uint256"
        }
      ],
      "stateMutability": "view",
      "type": "function"
    },
    {
      "inputs": [],
      "name": "owner",
      "outputs": [
        {
          "internalType": "address",
          "name": "",
          "type": "address"
        }
      ],
      "stateMutability": "view",
      "type": "function"
    },
    {
      "inputs": [],
      "name": "platformFeeRate",
      "outputs": [
        {
          "internalType": "uint256",
          "name": "",
          "type": "uint256"
        }
      ],
      "stateMutability": "view",
      "type": "function"
    },
    {
      "inputs": [
        {
          "internalType": "uint256",
          "name": "loanId",
          "type": "uint256"
        }
      ],
      "name": "repayLoan",
      "outputs": [],
      "stateMutability": "payable",
      "type": "function"
    },
    {
      "inputs": [
        {
          "internalType": "uint256",
          "name": "newThreshold",
          "type": "uint256"
        }
      ],
      "name": "setLiquidationThreshold",
      "outputs": [],
      "stateMutability": "nonpayable",
      "type": "function"
    },
    {
      "inputs": [
        {
          "internalType": "uint256",
          "name": "newRatio",
          "type": "uint256"
        }
      ],
      "name": "setMinCollateralRatio",
      "outputs": [],
      "stateMutability": "nonpayable",
      "type": "function"
    },
    {
      "inputs": [
        {
          "internalType": "uint256",
          "name": "newFee",
          "type": "uint256"
        }
      ],
      "name": "setPlatformFee",
      "outputs": [],
      "stateMutability": "nonpayable",
      "type": "function"
    },
    {
      "stateMutability": "payable",
      "type": "receive"
    }
  ],
  "bytecode": "0x60806040526064600155613a98600255612ee060035534801561002157600080fd5b50600080546001600160a01b03191633179055611b39806100436000396000f3fe60806040526004361061016a5760003560e01c806381257bd5116100d1578063ccdd9f5d1161008a578063e1ec3c6811610064578063e1ec3c681461056b578063eeca08f014610607578063ef4f2abb1461061d578063ef706adf1461064d57600080fd5b8063ccdd9f5d146104c9578063d0b0c816146104e9578063d3dd2bdf1461050957600080fd5b806381257bd51461042c578063846b909a1461043f57806384da2666146104525780638da5cb5b14610468578063ab7b1c89146104a0578063b7a3c1da146104b357600080fd5b80633a97f852116101235780633a97f852146102bb5780634031234c146102db5780634579268a146102f1578063504006ca1461036d5780635858224b1461039a57806380bb7273146103ba57600080fd5b806305e1bd8c1461017657806312e8e2c3146101a95780631443e4e7146101cb5780632c7bdd4b146101de57806334d9289e14610285578063385362751461029b57600080fd5b3661017157005b600080fd5b34801561018257600080fd5b5061019661019136600461186d565b61066d565b6040519081526020015b60405180910390f35b3480156101b557600080fd5b506101c96101c4366004611899565b61069c565b005b6101966101d936600461186d565b6106cb565b3480156101ea57600080fd5b506102446101f9366004611899565b600560208190526000918252604090912080546001820154600283015460038401546004850154958501546006909501546001600160a01b03909416959294919390929160ff169087565b604080516001600160a01b03909816885260208801969096529486019390935260608501919091526080840152151560a083015260c082015260e0016101a0565b34801561029157600080fd5b5061019660075481565b3480156102a757600080fd5b506101c96102b6366004611899565b6108c1565b3480156102c757600080fd5b506101966102d63660046118b2565b6108f0565b3480156102e757600080fd5b5061019660035481565b3480156102fd57600080fd5b5061031161030c366004611899565b610a2d565b6040516101a0919081516001600160a01b031681526020808301519082015260408083015190820152606080830151908201526080808301519082015260a08281015115159082015260c0918201519181019190915260e00190565b34801561037957600080fd5b5061038d610388366004611899565b610ae8565b6040516101a0919061191c565b3480156103a657600080fd5b506101966103b5366004611899565b610bb4565b3480156103c657600080fd5b506104046103d53660046119b7565b600660205260009081526040902080546001820154600283015460038401546004909401549293919290919085565b604080519586526020860194909452928401919091526060830152608082015260a0016101a0565b61019661043a3660046119e7565b610c29565b6101c961044d366004611899565b610ef0565b34801561045e57600080fd5b5061019660025481565b34801561047457600080fd5b50600054610488906001600160a01b031681565b6040516001600160a01b0390911681526020016101a0565b6101c96104ae366004611899565b611057565b3480156104bf57600080fd5b5061019660085481565b3480156104d557600080fd5b506101c96104e4366004611899565b611314565b3480156104f557600080fd5b506101c9610504366004611899565b611415565b34801561051557600080fd5b506105296105243660046119b7565b611444565b6040516101a09190600060a082019050825182526020830151602083015260408301516040830152606083015160608301526080830151608083015292915050565b34801561057757600080fd5b506105f0610586366004611899565b600460208190526000918252604090912080546001820154600283015460038401549484015460058501546006860154600787015460088801546009890154600a909901546001600160a01b039889169a97909816989597949593949293919260ff90911691908b565b6040516101a09b9a99989796959493929190611a09565b34801561061357600080fd5b5061019660015481565b34801561062957600080fd5b5061063d610638366004611899565b6114ec565b60405190151581526020016101a0565b34801561065957600080fd5b506101c9610668366004611899565b611552565b600064496cebb800826106808587611a8b565b61068a9190611a8b565b6106949190611aa2565b949350505050565b6000546001600160a01b031633146106c6576040516282b42960e81b815260040160405180910390fd5b600155565b6000836000036106ee5760405163162908e360e11b815260040160405180910390fd5b346000856106fe83612710611a8b565b6107089190611aa2565b905060025481101561072d57604051633a23d82560e01b815260040160405180910390fd5b600060076000815461073e90611ac4565b9190508190559050604051806101600160405280336001600160a01b0316815260200160006001600160a01b031681526020018881526020018481526020018781526020018681526020016000815260200160008152602001600060048111156107aa576107aa6118e4565b81526000602080830182905242604093840152848252600480825291839020845181546001600160a01b039182166001600160a01b0319918216178355928601516001808401805492909316919094161790559284015160028401556060840151600384015560808401518383015560a0840151600584015560c0840151600684015560e084015160078401556101008401516008840180549193909260ff1990921691908490811115610860576108606118e4565b0217905550610120820151600982015561014090910151600a90910155604051878152600090339083907f74b3e97b2a36ecfc8a1c59a0f98862174d98f86769a3420cf68024a054f87b6d9060200160405180910390a49695505050505050565b6000546001600160a01b031633146108eb576040516282b42960e81b815260040160405180910390fd5b600255565b6000846000036109135760405163162908e360e11b815260040160405180910390fd5b60025482101561093657604051633a23d82560e01b815260040160405180910390fd5b600060086000815461094790611ac4565b91829055506040805160e0810182523380825260208083018b81528385018b8152606085018b8152608086018b8152600160a088018181524260c08a0190815260008c81526005808a52908c90209a518b546001600160a01b0319166001600160a01b03909116178b559651928a019290925593516002890155915160038801555160048701559051918501805460ff191692151592909217909155516006909301929092559151898152929350909183917f52fb90251192fd79e4c01dbf99a5e157a73c356fb5ddc6f6d7082e6b6620fbb0910160405180910390a395945050505050565b610a786040518060e0016040528060006001600160a01b0316815260200160008152602001600081526020016000815260200160008152602001600015158152602001600081525090565b50600090815260056020818152604092839020835160e08101855281546001600160a01b0316815260018201549281019290925260028101549382019390935260038301546060820152600483015460808201529082015460ff16151560a082015260069091015460c082015290565b610af06117f0565b60008281526004602081815260409283902083516101608101855281546001600160a01b0390811682526001830154169281019290925260028101549382019390935260038301546060820152828201546080820152600583015460a0820152600683015460c0820152600783015460e0820152600883015490929161010084019160ff1690811115610b8557610b856118e4565b6004811115610b9657610b966118e4565b815260098201546020820152600a9091015460409091015292915050565b60008181526004602081905260408220600281015491810154600582015491928492610be0929061066d565b905060006127106001548460020154610bf99190611a8b565b610c039190611aa2565b905080828460020154610c169190611add565b610c209190611add565b95945050505050565b600082815260056020819052604082209081015460ff16610c5d57604051634d80826b60e11b815260040160405180910390fd5b8060030154831115610c825760405163162908e360e11b815260040160405180910390fd5b60018101543490600090610c9883612710611a8b565b610ca29190611aa2565b90508260040154811015610cc957604051633a23d82560e01b815260040160405180910390fd5b6000600760008154610cda90611ac4565b9182905550604080516101608101825233815286546001600160a01b03166020820152600187015491810191909152606081018590526002860154608082015260a081018890524260c082018190529192509060e0820190610d3d908990611add565b8152600160208083018290526000604080850182905242606095860152868252600480845291819020865181546001600160a01b03199081166001600160a01b03928316178355948801518287018054909616911617909355850151600283015592840151600382015560808401518184015560a0840151600582015560c0840151600682015560e0840151600782015561010084015160088201805492949193909260ff1916918490811115610df657610df66118e4565b0217905550610120820151600982015561014090910151600a90910155600184015460405160009133918381818185875af1925050503d8060008114610e58576040519150601f19603f3d011682016040523d82523d6000602084013e610e5d565b606091505b5050905080610e7f576040516312171d8360e31b815260040160405180910390fd5b610e8d3386600101546115e9565b60058501805460ff19169055845460018601546040519081526001600160a01b0390911690339084907f74b3e97b2a36ecfc8a1c59a0f98862174d98f86769a3420cf68024a054f87b6d9060200160405180910390a45093505050505b92915050565b600081815260046020526040812090600882015460ff166004811115610f1857610f186118e4565b14610f365760405163119b4fd360e11b815260040160405180910390fd5b80600201543414610f5a5760405163162908e360e11b815260040160405180910390fd5b6001810180546001600160a01b0319163317905542600682018190556005820154610f8491611add565b600782015560088101805460ff1916600117905580546040516000916001600160a01b03169034908381818185875af1925050503d8060008114610fe4576040519150601f19603f3d011682016040523d82523d6000602084013e610fe9565b606091505b505090508061100b576040516312171d8360e31b815260040160405180910390fd5b81546002830154611025916001600160a01b0316906115e9565b604051339084907f15feab5d3eb17171632762cf769709a315dd15f487a556c0dfb8a259c8f186cc90600090a3505050565b600081815260046020526040902080546001600160a01b0316331461108e576040516282b42960e81b815260040160405180910390fd5b6001600882015460ff1660048111156110a9576110a96118e4565b146110c757604051630417bc2360e11b815260040160405180910390fd5b60006110d283610bb4565b90508034146110f45760405163162908e360e11b815260040160405180910390fd5b600061110d83600201548460040154856005015461066d565b9050600061271060015485600201546111269190611a8b565b6111309190611aa2565b600185015460028601549192506000916001600160a01b0390911690611157908590611add565b604051600081818185875af1925050503d8060008114611193576040519150601f19603f3d011682016040523d82523d6000602084013e611198565b606091505b50509050806111ba576040516312171d8360e31b815260040160405180910390fd5b600080546040516001600160a01b039091169084908381818185875af1925050503d8060008114611207576040519150601f19603f3d011682016040523d82523d6000602084013e61120c565b606091505b505090508061122e576040516312171d8360e31b815260040160405180910390fd5b855460038701546040516000926001600160a01b031691908381818185875af1925050503d806000811461127e576040519150601f19603f3d011682016040523d82523d6000602084013e611283565b606091505b50509050806112a5576040516312171d8360e31b815260040160405180910390fd5b60088701805460ff191660021790556009870186905586546112d0906001600160a01b03168761161f565b877f040cee90ee4799897c30ca04e5feb6fa43dbba9b6d084b4b257cdafd84ba013e8760405161130291815260200190565b60405180910390a25050505050505050565b600081815260046020526040902061132b826114ec565b6113485760405163eff4a02360e01b815260040160405180910390fd5b600181015460038201546040516000926001600160a01b031691908381818185875af1925050503d806000811461139b576040519150601f19603f3d011682016040523d82523d6000602084013e6113a0565b606091505b50509050806113c2576040516312171d8360e31b815260040160405180910390fd5b60088201805460ff1916600417905581546113e5906001600160a01b03166116d5565b60405183907faf91ffe368225045d42f7c2b4b90feb438133ac1e375e73bc9066652b70a1d7790600090a2505050565b6000546001600160a01b0316331461143f576040516282b42960e81b815260040160405180910390fd5b600355565b6114766040518060a0016040528060008152602001600081526020016000815260200160008152602001600081525090565b6001600160a01b038216600090815260066020908152604091829020825160a0810184528154815260018201549281019290925260028101549282019290925260038201546060820152600490910154608082018190521580156114d957508051155b15610eea576101f4608082015292915050565b60008181526004602052604081206001600882015460ff166004811115611515576115156118e4565b146115235750600092915050565b60008160020154826003015461271061153c9190611a8b565b6115469190611aa2565b60035411949350505050565b600081815260056020526040902080546001600160a01b03163314611589576040516282b42960e81b815260040160405180910390fd5b600581015460ff166115ae5760405163c5723b5160e01b815260040160405180910390fd5b60058101805460ff1916905560405182907feff051d270f5ecee1680a12ea87f0452d48a2637f5e381834c1b9d630e1b914890600090a25050565b6001600160a01b0382166000908152600660205260408120805490918391839190611615908490611add565b9091555050505050565b6001600160a01b03821660009081526006602052604081206001810180549192849261164c908490611add565b9250508190555060018160020160008282546116689190611add565b9250508190555061168b816001015482600001548360020154846003015461176f565b600482018190556040519081526001600160a01b038416907f79c012a0cfae660e09134956bc432c8497ec80e86a3a108d130e8b3fca52b3ad9060200160405180910390a2505050565b6001600160a01b03811660009081526006602052604081206003810180549192600192611703908490611add565b92505081905550611726816001015482600001548360020154846003015461176f565b600482018190556040519081526001600160a01b038316907f79c012a0cfae660e09134956bc432c8497ec80e86a3a108d130e8b3fca52b3ad9060200160405180910390a25050565b60008360000361178257506101f4610694565b600084611791876103e8611a8b565b61179b9190611aa2565b905060006117aa846064611a8b565b905060006117b9866032611a8b565b9050818311156117e257806117ce8385611af0565b6117d89190611add565b9350505050610694565b506000979650505050505050565b60405180610160016040528060006001600160a01b0316815260200160006001600160a01b0316815260200160008152602001600081526020016000815260200160008152602001600081526020016000815260200160006004811115611859576118596118e4565b815260200160008152602001600081525090565b60008060006060848603121561188257600080fd5b505081359360208301359350604090920135919050565b6000602082840312156118ab57600080fd5b5035919050565b600080600080608085870312156118c857600080fd5b5050823594602084013594506040840135936060013592509050565b634e487b7160e01b600052602160045260246000fd5b6005811061191857634e487b7160e01b600052602160045260246000fd5b9052565b81516001600160a01b031681526101608101602083015161194860208401826001600160a01b03169052565b5060408301516040830152606083015160608301526080830151608083015260a083015160a083015260c083015160c083015260e083015160e083015261010080840151611998828501826118fa565b5050610120838101519083015261014092830151929091019190915290565b6000602082840312156119c957600080fd5b81356001600160a01b03811681146119e057600080fd5b9392505050565b600080604083850312156119fa57600080fd5b50508035926020909101359150565b6001600160a01b038c811682528b166020820152604081018a9052606081018990526080810188905260a0810187905260c0810186905260e081018590526101608101611a5a6101008301866118fa565b61012082019390935261014001529998505050505050505050565b634e487b7160e01b600052601160045260246000fd5b8082028115828204841417610eea57610eea611a75565b600082611abf57634e487b7160e01b600052601260045260246000fd5b500490565b600060018201611ad657611ad6611a75565b5060010190565b80820180821115610eea57610eea611a75565b81810381811115610eea57610eea611a7556fea2646970667358221220e1e15f7ef26b30b37af81ef627606f27242274dcf889e892c5800cf4bbc0a13a64736f6c63430008140033",
  "linkReferences": {},
  "deployedLinkReferences": {}
}